:020000040800F2
:100000004010002049010008E5490008E73C0008CD
:1000100069480008DF0900089D5C00080000000036
:10002000000000000000000000000000A94C0008D3
:10003000DB0F000800000000B94B0008294F000842
:100040006301000863010008630100086301000800
:1000500063010008630100086301000869120008D9
:100060006F1200087512000863010008750F000880
:10007000810F00088D0F0008990F0008A50F0008D8
:1000800063010008630100087D090008630100089E
:100090006301000863010008630100087B12000887
:1000A00063010008630100086301000863010008A0
:1000B0006301000863010008630100086301000890
:1000C0006301000863010008630100086301000880
:1000D000630100085D5700086301000875570008B8
:1000E0006112000863010008630100086301000851
:1000F0006301000863010008630100086301000850
:10010000630100086301000819500008630100083A
:100110006301000863010008255000083150000801
:10012000630100086301000863010008630100081F
:10013000DFF810D000F0C4FB004800474567000816
:10014000AFF3008040100020064880470648004773
:10015000FEE7FEE7FEE7FEE7FEE7FEE7FEE7FEE777
:10016000FEE7FEE7A74F000831010008202A04DB64
:10017000203A21FA02F00021704721FA02F3D04020
:10018000C2F120029140084319467047D2B201E003
:1001900000F8012B491EFBD270470022F6E710B58C
:1001A00013460A4604461946FFF7F0FF204610BDE5
:1001B000421C10F8011B0029FBD1801A70472DE961
:1001C000F0410E460546002400E0641C285D00F066
:1001D00093F90746305D00F08FF9381A02D1295D96
:1001E0000029F2D1BDE8F0812DE9F041054600205B
:1001F00090460E46044600E0641C44450BD2285D40
:1002000000F07AF90746305D00F076F9381A02D12D
:10021000295D0029F0D1BDE8F081F0B480EA010247
:10022000D40F4200B2EB410F02D2024608461146FB
:100230004A0042D0C30DDDB2C1F3C752AD1A202D22
:1002400035DAC1F3160141F4000204B15242C5F19E
:10025000200602FA06F12A411044B3EBD05F23D006
:10026000C4B1012DA0EBC35009DCF0BC4FF000423B
:1002700002EAC352DBB200F5000000F04CB94000C6
:1002800000F1807000EBC350A0F1807040EAD170A3
:10029000490009E0490841EAC071A0EBC35000F5EC
:1002A0000000400800EBC350F0BC00F02BB96142E5
:1002B000012202EB4101001BF6E7F0BC704781F020
:1002C0000041AAE780F00040A7E780EA010210B5EC
:1002D00002F00043400022D04A001FD0010E01EB83
:1002E0001261C0F35600C2F3560240F4000042F41B
:1002F0000002A0FB022000047F39140400D0401C3F
:1003000050EA124001D44000491EC2B20C0604EB70
:10031000D010401C4008802A02D003E0002010BD0D
:1003200020F00100002900DA0020184310BD2DE95B
:10033000F04D81EA030404F0004B21F0004514461F
:100340004FF0000A23F0004150EA050220D054EAA1
:1003500001021DD0C5F30A570246C5F31303C1F3CA
:100360001300C1F30A5640F4801543F48013A7EB41
:100370000608101BD64608F2FD3873EB050002D3C1
:1003800008F1010801E092185B41B8F1000F03DAAF
:1003900000200146BDE8F08D00204FF48011064694
:1003A00084460EE0171B73EB050705D3121B63EBA6
:1003B000050306434CEA010C49084FEA3000921845
:1003C0005B4150EA0107EDD152EA030012D082EA04
:1003D000040083EA0501084305D0101BAB4106D297
:1003E0000122002306E000224FF0004302E06FF0FC
:1003F000010253101AEB06004CEB085110EB0A00F7
:1004000041EB0B01BDE8F04D00F0B3B8C10F80EA3D
:10041000E0700844CA079623002100F07CB80EB5AE
:1004200040F2334102910021CDE900110A460B460A
:1004300000F0AEF803B000BD00F0004220F0004034
:10044000C10DC0F3160040F400007F2901DA00203E
:100450007047962903DCC1F19601C84001E0963946
:100460008840002AF4D04042704730B50B46014620
:1004700000202022012409E021FA02F59D4205D343
:1004800003FA02F5491B04FA02F52844151EA2F1ED
:100490000102F1DC30BD2DE9F05F054600209246F7
:1004A0009B4688460646814640241BE02846414636
:1004B00047462246FFF75AFE53465A46C01A914114
:1004C00010D311461846224600F00CFA2D1A67EB9D
:1004D00001084F4622460120002100F003FA17EBE5
:1004E00000094E41201EA4F10104DFDC48463146DC
:1004F0002A464346BDE8F09FA0F14101192900D8E2
:10050000203070470029A8BF7047401C490008BF31
:1005100020F00100704710B4B0FA80FC00FA0CF033
:1005200050EA010404BF10BC704749B1CCF120046B
:1005300021FA04F411FA0CF118BF012121430843F8
:10054000A3EB0C01CB1D4FEA00614FEA102042BF24
:10055000002010BC704700EBC35010440029A4BF1A
:1005600010BC7047401C490008BF20F0010010BCBF
:10057000704710B5141E73F1000408DA401C41F1F5
:10058000000192185B411A4301D120F0010010BD17
:100590002DE9F04D92469B4611B1B1FA81F202E08D
:1005A000B0FA80F22032904600F09CF904460F46E3
:1005B00040EA0A0041EA0B0153465A46084313D069
:1005C000114653EA010019D0C8F140025046FFF726
:1005D000CDFD05460E4650465946424600F082F98A
:1005E000084305D0012004E020463946BDE8F08DDF
:1005F0000020054346EAE0762C4337430A9863051A
:10060000E40AA0EB08000022FD0A44EA47540A303D
:1006100002D500200146E9E7010510196941DDE92D
:10062000084500196941BDE8F04DA2E72DE9FE4FEC
:10063000804681EA0300C00F0C46009021F0004183
:1006400023F00045B8EB0200A94105D240462146FF
:1006500090461C460B46024623F00040104347D00C
:10066000270DC7F30A00C3F30A510290401A019004
:1006700040286BDAC3F3130040F4801B00989246C5
:1006800020B10023D2EB030A63EB0B0B0198594610
:10069000C0F14002504600F025F906460D4650468E
:1006A0005946019A00F02DF910EB08006141002431
:1006B00087EA115284EAE7731A4340D0009A62B382
:1006C000019A012A4FEA075215DC001B61EB020177
:1006D0004FF0004202EA0752CDE90042001C41F50A
:1006E000801132462B46FFF753FF03B0BDE8F08F71
:1006F00040462146F9E7001B61EB0201001C41F571
:10070000801300185B412018A2F5001747EB030186
:1007100040EAD570B6196D4111E06D084FEA360612
:1007200045EAC0754FEA0752001B61EB0201001C4D
:1007300041F5801149084FEA300000195141324615
:100740002B4603B0BDE8F04FFFF713BF009801221E
:1007500040000023D0EB020263EBE07300982146D7
:100760004FEAE074B8EB000061EB0401E9E783F0C5
:1007700000435BE781F0004158E72DE9FE4F81EA35
:10078000030404F0004421F0004100944FF0000BFA
:1007900023F0004350EA01045ED052EA03045BD028
:1007A000C3F30A54C1F30A552C44A4F2F334019460
:1007B000A0FB0254C1F3130141F48011C3F31303EE
:1007C00043F4801301FB024400FB034E840A970AA2
:1007D00044EA815447EA8357A4FB076802958D0ACF
:1007E00005FB07854FEA932C04FB0C542705029D5B
:1007F0004FEA065847EA1637B5EB08056EEB070CCB
:10080000870E920E47EA811742EA8312A7FB020184
:10081000B6EB0B0164EB00042B0D43EA0C335E18BE
:1008200044EB1C50DA465146E7FB0201C5F31304C2
:100830004FEA0B3343EA14534FEA0432019C43EA74
:100840000603A4F10C040294009CCDE900B4FFF768
:100850009FFE03B0BDE8F08F00200146F9E7C1F329
:100860000A52C1F3130140F2FF3341F480119A425E
:1008700002DA00200146704740F233439A42A2F266
:10088000334202DC5242FFF771BC00F02BB800008B
:1008900030B5041E71F1000404DB4FF00044404207
:1008A00064EB0101141E73F1000405DB1C464FF0DC
:1008B0000043524263EB0403994208BF904230BDAB
:1008C000064C074D06E0E06840F0010394E807009D
:1008D00098471034AC42F6D3FFF72EFC4875000859
:1008E00068750008202A04DB203A00FA02F1002093
:1008F00070479140C2F1200320FA03F3194390405E
:100900007047202A06DBCB17203A41FA02F043EA6F
:10091000E07306E041FA02F3D040C2F120029140B8
:1009200008431946704770B58C1810F8015B15F034
:10093000070301D110F8013B2A1106D110F8012B51
:1009400003E010F8016B01F8016B5B1EF9D12B0776
:1009500005D40023521E0DD401F8013BFAE710F82C
:10096000013BCB1A921C03E013F8015B01F8015B19
:10097000521EF9D5A142D8D3002070BD014800F025
:100980007EBD0000E806002070B50446006881685E
:10099000C943C90717D1816821F00101816001F0C5
:1009A0003DFA05460AE000BF01F038FA401B022874
:1009B00004D920688068C043C00706D020688068DA
:1009C000C043C007F0D0002070BDA06A40F0100006
:1009D000A062E06A40F00100E062012070BDFEE725
:1009E000074B002003EB4002B2F90210002900DAA5
:1009F00049424942401C51800228F3DB7047000005
:100A000098060020064B002003EB4002B2F90210CA
:100A1000002900DA4942401C51800228F4DB70476B
:100A20009806002010B50E210348FFF7B6FB0348D7
:100A3000A0F13401486010BD98060020CC000020D1
:100A400006480188491C09B201802D2901DD2D21AC
:100A50000180B0F90010012004F0A2B9980600202E
:100A600070B5234C234A0026A089516801EB001180
:100A70008B8983B162893AB3521C92B262818B89AD
:100A80009A4204D01C4A896852698A4202D266811D
:100A9000401CA08170BD16700021012004F080F977
:100AA00000F062F85FF0000504EB45000021C6800D
:100AB000284600F093FA6D1C022DF5DBBDE870406E
:100AC0000E210B48FFF769BB012060815FF0000039
:100AD00001EB400204EB40035288401C5A8002287C
:100AE000F6DBB1F90010BDE87040012004F058B900
:100AF00098060020980000203C010020094810B50D
:100B0000017800290CD00178022909D10121017056
:100B100004F0E0F800F044F8BDE81040FFF7A0BF93
:100B200010BD00009800002007486FF02C020188DB
:100B3000491E09B20180914200DA0280B0F900102A
:100B4000012004F02DB9000098060020054B00207C
:100B500003EB4002401C5188491F51800228F7DBFB
:100B600070470000980600200020054A014600BF9B
:100B700002EB4003401C59800228F9DB704700005B
:100B800098060020054B002003EB4002401C5188D2
:100B9000491D51800228F7DB7047000098060020AD
:100BA0002DE9F04FDFF8BCB08FB00BF12000DFF87B
:100BB000B0900168009141680291806800240DF1B5
:100BC000240A0490284804EB440109EB440800EB94
:100BD0008101B8F902208868151A22484AF8245081
:100BE000083050F82420561940F824605BF824207F
:100BF0008B68D21A0BAB43F8242089684BF8241079
:100C00001046FFF703FC0499FFF75FFB07463046E9
:100C1000FFF7FCFB0299FFF758FB06462846FFF753
:100C2000F5FB0099FFF751FB3146FFF7F6FA39461D
:100C3000FFF7F3FAFFF700FC641CA8F80600022C8B
:100C4000C0DB4C46B9F90610002000F0C7F9208936
:100C5000404201B2012000F0C1F90FB0BDE8F08FB1
:100C600098060020A00000208000002001490120FB
:100C7000087070479800002002490020087000F0BA
:100C800021B90000980000200248002101800120C5
:100C900004F086B8980600202DE9F04100251D4E8D
:100CA0002F4600BF05EBC50000EB851006EBC00426
:100CB000D4F81801012805D0D4F81001D4F8141183
:100CC00088421FD0D4F844C2D4F8100104EB80004D
:100CD000D0F80031D4F81001DCF81C1004EB8012BD
:100CE0009CF82000DCF814C0E04700280DD0D4F8B0
:100CF000100103280BD0D4F81001401CC4F81001D7
:100D0000C4F818716D1C022DCCDBBDE8F081C4F86D
:100D10001071F5E70802002070B51B4E002500BFDA
:100D200005EBC50000EB851006EBC004D4F83802D3
:100D3000012824D0D4F83402012805D0D4F82C029C
:100D4000D4F8301288421AD0D4F84432D4F82C02A5
:100D5000D4F82C1204EB8000D0F81C02D4F8402206
:100D600004EB81110244C4F8402282B201F58E7175
:100D700004F50E74986802F03BFF012020606D1CA2
:100D8000022DCDDB70BD00000802002070B5084CBC
:100D9000064600252046FFF70BFA0246204631465C
:100DA000FFF722FA08B1284670BD204670BD00004A
:100DB000AC01002010B506A005F02AF803F0B4FE3F
:100DC00003F071FE00F010F8BDE8104000F07AB8B2
:100DD0005374617274204374726C204D656E752E6D
:100DE0002E2E0D0A00000000F0B50D4900200D4A1E
:100DF00008718C784B780D780FE000BFC0EBC0060F
:100E000002EB8606377E9F4205D1767EA64202D14E
:100E10000E79761C0E71401CC0B2A842EED3F0BD14
:100E20002C010020E870000870B5164CA079002550
:100E300001280AD1A571E078401CC0B2E070217988
:100E4000884200D1E57000F03DF8E079012817D123
:100E5000E5716079C0EBC0010B4800EB810040698F
:100E600010B1BDE8704000476078401C6070E078C9
:100E7000A070E570FFF7B8FFBDE8704000F022B841
:100E800070BD00002C010020E87000080B4810B570
:100E90004178491E11F0FF01417000D18170417904
:100EA000074AC1EBC10102EB8101497EC170FFF726
:100EB0009BFFBDE8104000F005B800002C010020A9
:100EC000E87000082DE9F843002426464FF0010998
:100ED000DFF89480254D274630E000BFC6EBC60101
:100EE00008EB81026978107E884225D1507EA9786E
:100EF000884221D1E878C107917E02D0814202D098
:100F000020E081420AD14FF010034FF0000120464B
:100F1000CDF8009003F068FD6E7109E00AD900BFBA
:100F20004FF010034FF000012046009703F05CFDE6
:100F3000641CE4B2022C15D0761CF6B228788642E6
:100F4000CCD30DE020F001008142E9D2F2E710237A
:100F500007A200212046009703F046FD641CE4B27E
:100F6000022CF4D3BDE8F883E87000082C010020BF
:100F700000000000014800F08DBC000018070020B0
:100F8000014800F087BC0000FC0B0020014800F085
:100F900081BC0000B80B0020014800F07BBC0000C1
:100FA000740B0020014800F075BC0000300B0020DD
:100FB00030B590F840500124AC40C56B6C600468BB
:100FC00063604368102B036803D099600068C260B7
:100FD00030BD9A600068C16030BD704770B50D4685
:100FE00002283DDA1F4901EB0014D4E9010102F0A7
:100FF00043FAE168606802F03FFA002D16DAE16812
:10100000684249B104290BD00829616809680BD0EE
:101010000864E168606815E0616809684863F8E79A
:10102000616809688863F4E7C863F2E7A06868B19B
:1010300004280FD00828606800680FD0C0F840501E
:10104000D4E90101BDE8704002F0BCB960680068F5
:101050004563F5E7606800688563F1E7C563EFE71E
:1010600070BD0000100000202DE9F04F95B0002564
:1010700004460D950E950F95109511951C2102A80B
:101080001295FFF78AF809950A950B950C95022C95
:101090007ED26B488F2100EB04174FF0804BD7E9CD
:1010A0000006684C86E8230042F20F71C6E903157A
:1010B000B561584507D1E06940F00100E061E069A1
:1010C00000F001001390DFF880813068DFF87C9138
:1010D000DFF87CA1404507D1E06940F00200E06103
:1010E000E06900F0020012E0484507D1E06940F0F5
:1010F0000400E061E06900F0040008E0504507D119
:10110000A06940F40050A061A06900F40050139061
:101110004FF480500D900DA9304601F059FE08B1F2
:1011200000F0AEF8304602F00AF908B100F0A8F875
:10113000119511A93046129501F032FD08B100F069
:101140009FF86020CDE902050495069502A9304676
:10115000BA6802F08EF808B100F092F802A93046A1
:10116000FA6802F086F808B100F08AF830680225C3
:10117000384F58451AD1A06940F00800A061A06915
:1011800000F0080001904FF44060CDE9090500E04F
:1011900040E009A930480C9500F03AFD786820F449
:1011A000407040F0E06040F4807078603068404506
:1011B00017D1A06940F00800A061A06909A900F05A
:1011C000080000900320CDE9090523480C9500F0A4
:1011D0001FFD786820F4406040F0E06040F400605B
:1011E00017E04FF44071484517D1A06940F008005E
:1011F000A061A06900F008000090CDE9091509A9D7
:1012000015480C9500F004FD786820F4805040F0FB
:10121000E060786015B0BDE8F08F5045FAD1A06964
:1012200040F01000A061A06900F010000090CDE92E
:10123000091509A909480C9500F0EAFCEAE7000045
:101240001000002000100240000400400008004090
:101250000034014000000140000C0140001001403A
:101260004FF4805000F0C8BC022000F0C5BC042040
:1012700000F0C2BC082000F0BFBC202000F0BCBCC5
:1012800072B6FEE730B52E498BB000200A780146D1
:1012900062F307012A4A521E127862F30F21284A8C
:1012A000921E127862F31741254AD21E127862F319
:1012B0001F61234A121F1378024663F30702204B73
:1012C0005B1F1B7863F30F221D4B9B1F1B7863F37F
:1012D00017421B4BDB1F1B7863F31F62184B083B45
:1012E0001B7863F30700164B093B1B7863F30F2051
:1012F000134B0A3B1B78124C63F317400B3C2478CA
:10130000030CC0F30725C0B2CDE90834CDE90605CA
:10131000100EC2F30743C2F30724D2B2CDE9043062
:10132000CDE90224080EC1F30742CDE90020C1F344
:101330000723CAB203A1104804F07AFD0BB030BDF8
:10134000F3F7FF1F253032582530325825303258F8
:101350002530325825303258253032582530325811
:101360002530325825303258253032582530325801
:101370002530325800000000EC01002070470000CA
:10138000F8B50024009490F824202546012A12D0B4
:10139000012280F824204A681F23072A0DD20668FC
:1013A000776B521E02EB820293409F430B6893407F
:1013B0001F43776319E00220F8BD06680D2A0AD2A0
:1013C000376BD21F02EB820293409F430B6893401E
:1013D0001F43376309E0F76A0D3A02EB820293403C
:1013E0009F430B6893401F43F7620A680723066810
:1013F0000A2A0AD3F7680A3A02EB420293409F4353
:101400008B6893401F43F76008E0376902EB4202A4
:1014100093409F438B6893401F4337610A68102AAB
:1014200001D0112A20D1124B02689A4217D1936839
:101430001B0219D4936843F40003936009681029D0
:1014400012D10C490C4A0968B1FBF2F101EB8101A0
:10145000490000E0491E00910029FBD104E0816AA7
:1014600041F020018162012480F824502046F8BD1B
:1014700000240140E401002040420F00704770B595
:101480000446006806684568A90625D5B10723D536
:10149000A16AC90603D4A16A41F40071A1628168FE
:1014A000C1F34241072910D1217B71B9416821F074
:1014B00020014160A06A20F48070A062A06AC0048C
:1014C00003D4A06A40F00100A0622046FFF7D6FFD7
:1014D00021686FF01200086028062ED570072CD501
:1014E000A06AC00603D4A06A40F40050A06220683D
:1014F0008168C1F30231072909D04168490515D433
:101500008168C1F34241072910D1217B71B941683B
:1015100021F080014160A06A20F48050A062A06A9E
:10152000C00503D4A06A40F00100A0622046FFF786
:1015300025FF21686FF00C00086068060CD5F007E5
:101540000AD0A06A40F48030A062204600F096F8ED
:1015500021686FF00100086070BD00002DE9F041C6
:1015600004004FF000057FD0A06A002628B9E6628B
:1015700084F82460204600F083F82046FFF704FA40
:10158000A16AC90600D420B1A06A40F01000A06290
:101590006AE0A16A21F4885141F00201A162334955
:1015A00023688B42E16904D1B1F5402F01D14FF49A
:1015B0000021277B4FF4807C41EA470261680A439F
:1015C000A168614508D0012906D0002194F814E0F3
:1015D000BEF1010F02D00AE06146F7E7C7B1A76A82
:1015E00047F02007A762E76A47F00107E7625F68F4
:1015F00027F469470F435F60236899681C4F39409F
:1016000011439960A16861450BD0012909D00CE014
:10161000DFF860E0A7690EEB47370F4347F400613E
:10162000E5E7218A0D05A5F580152168CB6A23F42D
:1016300070032B43CB62216889680F4B194091429C
:1016400008D1E662A16A21F0020141F00101A16224
:10165000BDE8F081A06A20F0020040F01000A06216
:10166000E06A40F00100E0620120F1E7003C014047
:10167000FDF7E1FF00E0FFFFFE0E1FFF70470000D7
:1016800070B586B000250646009501950295039534
:1016900000681D49884235D11C49886940F40070B2
:1016A0008861886900F400700490886940F0100037
:1016B00088618869694600F010000490012000905C
:1016C00003200190124800F0A3FA134C1148C4E91A
:1016D00000058020C4E90250400020618000C4E978
:1016E00005052046E56100F0F9F908B1FFF7C8FDEE
:1016F0003462002211461220666200F097FD12202B
:1017000000F087FD06B070BD0024014000100240CB
:1017100000100140080002401807002010B590F8A2
:1017200021100022022905D00421816380F82020A5
:10173000012010BD01680B6823F00E030B600168E7
:101740000B6823F001030B6090F84030C46B01215B
:1017500001FA03F3636080F8211080F8202010461E
:1017600010BD00002DE9F05F90F82110002402293F
:1017700003D004218163012485E001680A6822F016
:101780000E020A6001680A6822F001020A603F4EF8
:101790003E4FB215DFF8F4C0DFF8F090DFF8ECA0B0
:1017A000DFF8E8B0DFF8E4E00168783F13011502E4
:1017B000ACF1640CA9F15009AAF13C0AABF1280B79
:1017C000AEF1140E4FF48018B14227D9B9420ED0B1
:1017D000614512D049451DD0514518D0594518D002
:1017E000714501D1424615E0294EB14201D1012295
:1017F00010E0274E1436B14201D110220AE0244EE7
:101800002836B14206D0224A3C32914201D11A46D2
:1018100000E02A461E49091F0A602BE0B94213D096
:10182000614517D0494522D051451DD059451DD09D
:10183000714501D142461AE0B14202D14FF08072A7
:1018400015E0134EB14201D1012210E0104E1436C2
:10185000B14201D110220AE00D4E2836B14206D025
:101860000B4A3C32914201D11A4600E02A46074910
:1018700080394A60012180F82110002180F8201071
:10188000416B01B188472046BDE8F09F80000240CF
:10189000080402402DE9F05FC16B0A6801680B681B
:1018A000046C4FF0040808FA04F8844D844E854F08
:1018B000DFF814C2DFF81492DFF814A2DFF814B2D4
:1018C000DFF814E218EA020F65D05FEA437862D5C8
:1018D0000A68920603D40A6822F004020A60DFF85C
:1018E000F0814FF48062016808F1140813011402BA
:1018F000414524D9A9420DD0B1420FD0B9421AD0E6
:10190000614515D0494515D0514501D1120312E06A
:10191000594501D104220EE0714501D140220AE06F
:101920006D4D1435A94206D06B4A2832914201D13F
:101930001A4600E022466749091F0A6029E0A942C9
:1019400013D0B14215D0B94220D061451BD04945D2
:101950001BD0514502D14FF4800217E0414502D11E
:101960004FF0806212E0594501D104220EE071452A
:1019700001D140220AE0584D1435A94206D0564AFA
:101980002832914201D11A4600E022464B490839DB
:101990004A60C16A71E04FF0020808FA04F818EAD8
:1019A000020F70D05FEA83786DD50A68920606D47C
:1019B0000A6822F00A020A60012180F82110DFF88B
:1019C00010814FF40072016808F114081301140229
:1019D000414524D9A9420DD0B1420FD0B9421AD005
:1019E000614515D0494515D0514501D1120312E08A
:1019F000594501D102220EE0714501D120220AE0B1
:101A0000354D1435A94206D0334A2832914201D1CE
:101A10001A4600E022462F49091F0A6029E0A94220
:101A200013D0B14215D0B94220D061451BD04945F1
:101A30001BD0514502D14FF4001217E0414502D1AD
:101A40004FF0007212E0594501D102220EE07145BB
:101A500001D120220AE0204D1435A94206D01E4AA9
:101A60002832914201D11A4600E022461349083932
:101A70004A60002180F82010816A00291CD0BDE84E
:101A8000F05F0847FFE70825A540154214D01A0764
:101A900012D50A6822F00E020A6090F84020C36B4B
:101AA000012101FA02F25A60816380F821100021BD
:101AB00080F82010016BE0E7BDE8F09F08000240CD
:101AC0001C00024030000240440002405800024026
:101AD0006C000240080402401C04024030B560B1B2
:101AE0001A4B026814219A4209D2194B1344B3FBD2
:101AF000F1F18900016417490AE0012030BD134B60
:101B00005B421344B3FBF1F1890001640F490839CA
:101B1000C163022180F82110136843F6F0718B43F2
:101B2000F0E901142143D0E902452C432143046923
:101B300021434469214384692143194311600021F1
:101B40004163012242770177084630BD0804024014
:101B5000F8FFFDBF0000024070B5044690F8200079
:101B6000002501280CD0012084F8200094F8216081
:101B70000020012E06D084F820000225284670BDE2
:101B8000022070BD022684F82160A06320680668E8
:101B900026F0010606602046FFF70AFAE06A0028F0
:101BA0002068016802D041F00E0106E021F0040136
:101BB00001602068016841F00A0101602068016845
:101BC00041F001010160D9E710B5044603F0FAFEC7
:101BD0000120022C06D0042C06D0082C01D1034988
:101BE000087010BD0249FBE70249F9E76D010020CA
:101BF0003201002033010020044910B50A68024276
:101C000002D00860FFF7E0FF10BD0000140401409F
:101C10002DE9F84FDFF8C8910024A9F1040B234601
:101C20000F2709F1040AABF1040ED1E00125A5400C
:101C300006EA0502AA4276D1DFF8A8C14E68A6EBF3
:101C40000C0866452BD00DDC032E34D005DC36B3F2
:101C5000012E19D0022E2FD11BE0112E16D0122EDC
:101C60002AD119E0B8F5881F19D006DCB8F5803FF5
:101C700015D0B8F5801F1FD111E0B8F5001F0ED0A8
:101C8000B8F5041F18D10AE0CB6815E0CB681B1D1E
:101C900012E0CB6808330FE0CB680C330CE08B68A4
:101CA0002BB1012B4FF0080303D0456104E004235E
:101CB00002E0056100E00023FF2A01D8064601E0AA
:101CC00000F104064FEA840501D9A5F12005D6F8F4
:101CD000008007FA05FC28EA0C0803FA05F548EA33
:101CE0000508C6F800804D68ED0070D53E4DAE6920
:101CF00046F00106AE61AD6924F0030605F001056A
:101D000000953A4D06EB050CDCF80850A607360F97
:101D100007FA06F825EA0805DFF8D480404503D124
:101D20004FF0000825E052E0DFF8C880404502D1BE
:101D30004FF001081DE0DFF8C080404502D14FF0B0
:101D4000020816E0DFF8B480404502D14FF00308E6
:101D50000FE0DFF8AC80404502D14FF0040808E006
:101D6000DFF8A080404502D14FF0050801E04FF0B8
:101D7000060808FA06F848EA0508CCF808804D6815
:101D8000D9F80060ED024D4601D5164300E09643B8
:101D90002E604D68DAF80060AD02554601D5164355
:101DA00000E096432E604D68DBF80060AD035D46B1
:101DB00001D5164300E096432E604D68DEF80060C2
:101DC000ED03754601D5164300E096432E60641C72
:101DD0000A681646E2407FF429AFBDE8F88F00009C
:101DE00008040140000011100010024000000140F2
:101DF00000080140000C01400010014000140140A7
:101E000000180140001C01408068084000D00120FB
:101E100070470AB1016170470904FBE70148806817
:101E200070470000D801002070B5040025D094F858
:101E30003D00002520B984F83C50204600F050F9C0
:101E4000242084F83D002068016821F00101016030
:101E50002068016841F4004101602068016821F4B4
:101E60000041016000F020FB4D4A6168914201D8B9
:101E70004C4900E04C49884201D2012070BD4B49D9
:101E80002368B0FBF1F15E6826F03F060E435E600A
:101E90006368934206D94FF4967359434FF47A73AB
:101EA000B1FBF3F12368491C1E6A26F03F0631435B
:101EB00019626168914210D84900401EB0FBF1F2EE
:101EC000521CC2F30B02042A01D2042022E0B0FB10
:101ED000F1F0401CC0F30B001CE0A268F2B301EB70
:101EE000C10303EB0116431EB3FBF6F35B1C43F483
:101EF00080431B0549D092B301EBC10202EB0111F3
:101F0000401EB0FBF1F0401CC0F30B0040F48040D9
:101F100040F400402168CA694CF6FF739A431043AD
:101F2000C861D4E9071001432068026822F0C002AA
:101F300011430160D4E9030101432068826848F23B
:101F4000FF339A4311438160D4E9050108432168B6
:101F5000CA6822F0FF021043C86001E00EE016E0FC
:101F60002068016841F0010101602564202084F8A7
:101F70003D00256384F83E50002070BD01EB410612
:101F8000431EB3FBF6F35B1CB3E70120C2E701EB92
:101F90004101401EB0FBF1F0401CC0F30B00B7E75D
:101FA000A086010080841E0000093D0040420F0011
:101FB0002DE9FF4F83B09A46DDE911979346044619
:101FC000DDF84080FFF72AFF054694F83D00202801
:101FD0007FD11923012240492046009501F01CFFC2
:101FE000002876D194F83C00012872D0012084F8B2
:101FF0003C0020680168C90703D1016841F0010174
:1020000001602068016821F400610160212084F8EA
:102010003D00402084F83E0000262664C4F8248059
:10202000A4F82A90608D20852C48E062CDE90075E7
:1020300053465A462046049901F06EFE70B930E0CE
:102040002A463946204601F08DFF58B1206C0428FD
:1020500004D12068016841F400710160012007B0DB
:10206000BDE8F08F606A216800780861606A401CF2
:102070006062218D491E89B22185628D521E628562
:1020800022685369DB435B070BD469B100781061A8
:10209000606A401C6062208D401E2085608D401E5D
:1020A0006085208D0028CBD12A463946204601F094
:1020B00087FE0028CAD154F83D0B016841F4007135
:1020C0000160202004F81E09E67766770020C6E745
:1020D000FFE70220C3E70000020010000000FFFF3E
:1020E00010B586B000210091019102910391006822
:1020F000104988421BD1104CA06940F00800A06133
:10210000A069694600F0080004904FF44060009018
:1021100012200190032003900848FFF779FDE06941
:1021200040F48000E061E06900F48000049006B0B3
:1021300010BD00000058004000100240000C01409B
:10214000024881680278114481607047D8010020FC
:10215000074810B5016841F010010160032000F04C
:1021600085F80F2000F006F800F024F8002010BDDC
:102170000020024070B50D4D04464FF47A71287866
:10218000B1FBF0F00A490968B1FBF0F000F0C7FCC0
:1021900048B9102C07D200222146501E00F046F804
:1021A00000206C6070BD012070BD0000D8010020CF
:1021B000E40100200C4808B5816941F0010181610A
:1021C000816901F001010091C16941F08051C16153
:1021D000C06900F0805000900448416821F0E0613F
:1021E00041F00071416008BD001002400000014054
:1021F00000280DDB00F01F02012191404009800002
:1022000000F1E020C0F88011BFF34F8FBFF36F8F54
:102210007047002809DB00F01F02012191404009AE
:10222000800000F1E020C0F800117047F0B40E4BC0
:102230001B680C46C3F30223C3F10705042D00D924
:102240000425191D072901D2002300E0DB1E012609
:1022500006FA05F1491E214099409E40761E16401F
:102260003143F0BC03F0F8BD0CED00E0064900F08E
:10227000070208684FF6FF03184040EA0220034AAD
:1022800010430860704700000CED00E00000FA0504
:102290002DE9F84305460078354CC00754D0E06975
:1022A0000026C00008D4E06940F08050E061E06999
:1022B000012600F0805000902E480168C90512D414
:1022C0000168804641F480710160FFF7A7FD074671
:1022D00005E000BFFFF7A2FDC01B642823D8D8F893
:1022E0000000C005F6D5206A10F4407021D0A988FE
:1022F00001F4407181421CD0206A1F49012220F460
:1023000040700A6000220A602062C00711D0FFF707
:1023100085FD074641F2883808E000BFFFF77EFDE3
:10232000C11B414502D90320BDE8F883206A80071C
:10233000F4D5206A696820F44070084320621EB119
:10234000E06920F08050E0612878800705D560685A
:10235000A96820F44040084360602878C00605D58D
:102360006068696920F48000084360600020DBE752
:102370000010024000700040400442422DE9F04746
:102380000F46050061D0434E306800F00700B842A8
:1023900009D2306820F0070038433060306800F020
:1023A0000700B84251D128683B4C810712D540073D
:1023B00003D5606840F4E06060602878000703D5CA
:1023C000606840F4605060606068A96820F0F000C8
:1023D000084360602878C00728D06868012810D0BA
:1023E0002168022810D0890700292EDA616821F0BF
:1023F000030101436160FFF711FD804641F2883916
:102400000DE021688903EFE78901EDE7FFF706FD9D
:10241000A0EB0801494502D90320BDE8F0876068B8
:10242000696800F00C00B0EB810FEFD1306800F06C
:102430000700B8420BD9306820F0070038433060FD
:10244000306800F00700B84201D00120E5E72878A5
:10245000400705D56068E96820F4E06008436060E3
:102460002878000706D56068296920F4605040EAA2
:10247000C100606000F038F86168084AC1F30311D8
:10248000515CC8400649086006480068FFF772FEC4
:102490000020C2E700200240001002402E75000814
:1024A000E4010020DC010020044805490068496877
:1024B000044AC1F30221515CC8407047E401002086
:1024C000001002403E75000804480549006849684C
:1024D000044AC1F3C221515CC8407047E4010020A6
:1024E000001002403E7500080E4A51680E4801F087
:1024F0000C03042B11D0082B0FD10C48C1F38343DC
:10250000C903C05C0AD55168084AC1F34041921E14
:10251000515C054A5043B0FBF1F070470449484311
:10252000704700000010024000127A001E7500087B
:1025300000093D002DE9F84F040070D02078C04D0F
:10254000C00749D06868C0F38100012807D06868D7
:10255000C0F38100022809D16868C00306D5286845
:10256000800339D560680028E7D035E06068B0F5B1
:10257000803F0BD010B1B0F5A02F11D0286820F407
:1025800080302860286820F4802002E0286840F429
:1025900080302860606890B1FFF740FC06460AE092
:1025A000286840F480202860F0E700BFFFF736FC81
:1025B000801B642873D828688003F7D50CE0FFF7E8
:1025C0002DFC064605E000BFFFF728FC801B6428B1
:1025D000F0D828688003F7D420789A4E80074FF00F
:1025E00001094FF0000839D5686810F00C0F07D0CA
:1025F0006868C0F38100022809D16868C00306D466
:102600002868800714D52069012808D110E02069C6
:10261000B0B1C6F80090FFF701FC074605E00AE1FB
:10262000FFF7FCFBC01B0228C4D828688007F7D539
:102630002868616920F0F80040EAC10028600DE0D8
:10264000C6F80080FFF7EAFB074604E0FFF7E6FB69
:10265000C01B022823D828688007F7D420780007F9
:102660002CD57948A169D9B1C0F80090FFF7D6FB05
:10267000074604E0FFF7D2FBC01B02280FD8686AA8
:102680008007F7D571484FF4FA510068B0FBF1F0BC
:10269000009000BF0098411E0091FAD20EE080E049
:1026A000C0F80080FFF7BAFB074604E0FFF7B6FB6F
:1026B000C01B022875D8686A8007F7D420784007C5
:1026C00060D5E8690027C00008D4E86940F0805070
:1026D000E861E869012700F0805000905C480168DB
:1026E000C90513D40168834641F480710160FFF786
:1026F00095FB824606E000BFFFF790FBA0EB0A00C7
:1027000064284ED8DBF80000C005F5D5E068012844
:102710000AD008B1052813D0286A20F001002862E9
:10272000286A20F0040002E0286A40F001002862D4
:10273000E06841F2883B98B1FFF770FB82460BE0FE
:10274000286A40F004002862EEE700BFFFF766FB4E
:10275000A0EB0A0159455AD8286A8007F6D50CE043
:10276000FFF75CFB824605E0FFF758FBA0EB0A0190
:1027700059454CD8286A8007F6D41FB1E86920F083
:102780008050E861E06988B36968C1F3810102297A
:1027900044D00228C6F8608004D0FFF73FFB04460F
:1027A00038E034E0FFF73AFB074604E0FFF736FB7A
:1027B000C01B02282BD828688001F7D4206AB0F506
:1027C000803F05D16868A16820F400300843686044
:1027D000D4E908010843696821F47411084368606A
:1027E000C6F86090FFF71AFB044606E025E000BF3C
:1027F000FFF714FB001B022809D828688001F7D5D1
:102800001BE000BFFFF70AFB001B022802D90320D0
:10281000BDE8F88F28688001F4D40EE00128F7D0D5
:102820006868226A00F48031914204D1616A00F440
:102830007010884201D00120EAE70020E8E700009C
:10284000001002400000424280044242E4010020A5
:102850000070004070B5040009D0606A002540B1E6
:1028600025616561A56294F8510040B10CE001203A
:1028700070BD6068B0F5827FF4D0E561F2E784F85E
:102880005050204600F040F8022084F851002068A3
:10289000016821F040010160A088218900F4827064
:1028A00001F404410843A18901F400610843217C3B
:1028B00001F002010843217D01F001010843218B51
:1028C00001F400710843217F01F03801084394F8B6
:1028D000201001F080010843218D01F400510843CC
:1028E00021680860A069042101EA1040216848605D
:1028F0002068C16921F40061C1616565012084F827
:102900005100002070BD000030B585B00024009457
:10291000019402940394234D036823480221032267
:10292000AB4216D1836943F480538361836903F416
:1029300080530493836943F00403836180690392A5
:1029400000F004000490A020CDE90001694617487A
:1029500023E0174DAB4222D1C36943F48043C361E6
:10296000C36903F480430493836943F008038361DC
:102970008069104D00F0080004904FF42040CDE92C
:102980000001039269462846FFF742F94FF4804060
:10299000CDE90004694628460294FFF739F905B0ED
:1029A00030BD00000030014000100240000801402E
:1029B00000380040000C01402DE9F84F98461646BB
:1029C0008A460446FFF72AFA814694F85100012806
:1029D0001ED1BAF1000F73D0002E71D094F85000C0
:1029E000012815D0012784F85070032084F8510085
:1029F00000256565C4F830A0A686E686A563A58790
:102A0000E58765642564A068B0F5004F03D00CE04D
:102A10000220BDE8F88F2068016821F040010160C4
:102A20002068016841F4804101602068016849061E
:102A300003D4016841F040010160E068B0F5006F27
:102A4000606803D048B3012E27D047E008B1012EBB
:102A50001FD1206B21680088C86006E0206881686B
:102A6000890709D5216B0988C160206B801C206310
:102A7000E08E401EE0860CE0FFF7D0F9A0EB0901E4
:102A8000414503D3B8F1FF3F03D035E0B8F1000F63
:102A900032D0E08E0028E1D123E0206B216800785D
:102AA000087306E02068816889070AD5216B0978D8
:102AB0000173206B401C2063E08E401EE0860DE019
:102AC0002BE0FFF7ABF9A0EB0901414503D3B8F1C7
:102AD000FF3F03D010E0B8F1000F0DD0E08E0028CA
:102AE000E0D14A464146204602F067F808B120206E
:102AF0006065A06830B109E084F8517084F85050E6
:102B0000032086E72068C1688068009084F85170CF
:102B100004F8505F60680028F3D0012079E710B511
:102B2000401EB0F1807F01D3012010BD4FF0E024A2
:102B300060610F21601703F08FF90020A06107206A
:102B40002061002010BD7047704710B590F83C2000
:102B5000012A22D0012280F83C20CA688C6822F425
:102B6000407222434C6822F4806222430C6822F4B3
:102B7000006222430C6922F4805222434C6922F401
:102B800000522243C969002322F480420A430168AB
:102B90004A6480F83C30002010BD022010BD0000C7
:102BA00070B590F83C20012A2CD0012480F83C40DC
:102BB000022280F83D2003685A689D6822F0700662
:102BC0000A6832435A60104B02689A420ED00F4B8B
:102BD0009A420BD0B2F1804F08D00D4B9A4205D0EB
:102BE0000C4B9A4202D00C4B9A4204D1496825F012
:102BF00080031943916080F83D40002180F83C102B
:102C0000084670BD022070BD002C01400034014018
:102C10000004004000080040000C004010B5040013
:102C200003D094F83D0010B107E0012010BD002052
:102C300084F83C00204600F01FF8022084F83D0094
:102C4000211D206802F0FAF9012084F8460084F87A
:102C50003E0084F83F0084F8400084F8410084F886
:102C6000420084F8430084F8440084F8450084F866
:102C70003D00002010BD000008B501682848B1F1F2
:102C8000804F0BD0274A914210D1C16941F0040115
:102C9000C161C06900F00400009008BDC16941F045
:102CA0000101C161C06900F00100F5E71E4A9142CF
:102CB0000ED1C16941F00801C161C069002200F074
:102CC0000800009008213220FFF7B0FA322022E0FD
:102CD000164A91420ED1C16941F01001C161C0692B
:102CE000002200F01000009005213620FFF79EFA28
:102CF000362010E00E4A9142CFD1C16941F0200147
:102D0000C161C069002200F0200000900D21372031
:102D1000FFF78CFA3720BDE80840FFF77ABA0000C9
:102D20000010024000080040000C0040001000406D
:102D30000014004090F83D10012901D00120704797
:102D4000022180F83D100168CA6842F00102CA60A1
:102D500000680E4988420ED00D4988420BD0B0F170
:102D6000804F08D00B49884205D00B49884202D0D9
:102D70000A49884204D1816801F00701062903D07D
:102D8000016841F00101016000207047002C014002
:102D9000003401400004004000080040000C0040E6
:102DA0000168CA6822F00102CA6001680A6A41F239
:102DB00011131A4207D10A6A9B101A4203D10A68FA
:102DC00022F001020A60012180F83D1000207047C6
:102DD00070B5044690F83C000025012817D0012664
:102DE00084F83C60022084F83D002068826822F06C
:102DF000770222F47F4282600868502838D00DDCC8
:102E000020284FD005DC90B3102811D14AE00220D1
:102E100070BD302846D040280AD13BE060282FD032
:102E200070280DD0B0F5805F03D0B0F5005F12D0F0
:102E3000012584F83D60002084F83C00284670BDE0
:102E4000CB68D1E90121206802F053F9206881683C
:102E500041F0770109E0CB68D1E90121206802F057
:102E600048F92068816841F480418160E1E719E018
:102E7000CA684968206802F011FA5021206806E00B
:102E8000CA684968206802F01AFA6021206802F0D6
:102E90003AF9CEE7CA684968206802F0FFF9402194
:102EA0002068F4E7226801461046F0E72DE9F0417A
:102EB0000D46040003D094F83D0018B108E001204D
:102EC000BDE8F081002084F83C00204600F040F886
:102ED000022084F83D002068816844F20702914393
:102EE0008160211D206802F0A9F82268906891692C
:102EF000166A2B68AF69034340F20330814341EA0D
:102F00000721A868EF6908434FF6FC418843E96848
:102F100040EA0720014328692F6A000140EA073090
:102F2000084369686D6926F0220646EA05152943BB
:102F300093602268906154F8460B0162012004F806
:102F40001F09E0752076E0762077A0750020B7E7AE
:102F500000B585B000210091019102910391204AB2
:102F600001682048914220D1C16941F00201C1614C
:102F7000C16901F002010491816941F00801816198
:102F80008069694600F008000490302000901648DF
:102F9000FEF73EFE1548416821F4406141F0E061D2
:102FA00041F40061416005B000BD114A9142FAD17F
:102FB000816941F400518161816901F400510491FA
:102FC000816941F0100181618069694600F010005B
:102FD0000490C02000900748FEF71AFEE3E70000C7
:102FE0000004004000100240000C014000000140BD
:102FF000003401400010014070B590F83E60044676
:1030000090F83F5090F8423090F84320022021B1D0
:1030100004290ED0012E1BD114E0012E18D1012B52
:1030200016D184F83E0084F8420001220021206875
:1030300020E0012D0CD1012A0AD184F83F0084F848
:10304000430014E0012D03D1012B01D1012A01D04D
:10305000012070BD84F83E0084F83F0084F84200EF
:1030600084F8430001220021206802F035F8012293
:103070000421206802F030F82068016841F0010165
:103080000160002070BD70472DE9F04104460068E2
:10309000C66805694FF00007A90713D5B10711D518
:1030A000F91E016101202077206880698007204691
:1030B00002D0FFF7E8FF04E000F0DAF8204600F065
:1030C0007FF92777680716D5700714D521686FF048
:1030D00004000861022020772068806910F4407F96
:1030E000204602D0FFF7CFFF04E000F0C1F82046F1
:1030F00000F066F92777280715D5300713D5216822
:103100006FF008000861042020772068C0698007FC
:10311000204602D0FFF7B7FF04E000F0A9F82046F0
:1031200000F04EF92777E80616D5F00614D5216889
:103130006FF010000861082020772068C06910F443
:10314000407F204602D0FFF79EFF04E000F090F899
:10315000204600F035F92777E80708D0F00706D0B9
:1031600021686FF001000861204600F0C3F92806CD
:1031700008D5300606D521686FF08000086120462A
:10318000FFF7E1FC680608D5700606D521686FF0E8
:1031900040000861204600F0F7F9A8060AD5B006FD
:1031A00008D521686FF0200008612046BDE8F04195
:1031B000FFF7CABCBDE8F08110B586B000210091D0
:1031C000019102910391244C0368244A022124486E
:1031D000A3420DD1936943F0040393619269039173
:1031E00002F0040204928215CDE90021694614E040
:1031F000B3F1804F15D01B48834210D1906940F045
:10320000080090619069039100F0080004904FF469
:103210004070CDE9000169461348FEF7F9FC06B09D
:1032200010BD936943F0040393619269039102F026
:103230000402049248F20C02CDE900216946FEF72F
:10324000E7FC0A48416821F4407141F0E06141F433
:1032500080714160E3E70000002C01400010024053
:103260000008014000080040000C0140000001403F
:10327000704770B5044690F83C0000260D460128C2
:103280000FD0012084F83C006AB1042A1DD0082A1E
:103290002FD00C2A3FD00126002084F83C00304675
:1032A00070BD022070BD206801F036FF2068816982
:1032B00041F0080181612068816921F00401816188
:1032C000206881692A69114311E0206801F054FFE8
:1032D0002068816941F4006181612068816921F47D
:1032E00080618161206881692A6941EA02218161E6
:1032F000D2E7206801F076FF2068C16941F008013B
:10330000C1612068C16921F00401C1612068C169FF
:103310002A69114311E0206801F098FF2068C16913
:1033200041F40061C1612068C16921F48061C1611B
:103330002068C1692A6941EA0221C161ACE710B580
:10334000040003D094F83D0010B107E0012010BD47
:10335000002084F83C00204600F01EF8022084F88B
:103360003D00211D206801F069FE012084F846001F
:1033700084F83E0084F83F0084F8400084F841005F
:1033800084F8420084F8430084F8440084F845003F
:1033900084F83D00002010BD08B500680649884249
:1033A00008D10648816941F400618161806900F4B7
:1033B0000060009008BD0000002C01400010024099
:1033C0007047000010B50446022249B104290ED00E
:1033D000082913D094F84100012816D0012010BD0F
:1033E00094F83E000128F9D184F83E200FE094F8CB
:1033F0003F000128F2D184F83F2008E094F8400013
:103400000128EBD184F8402001E084F8412001221A
:10341000206801F061FE13492068134A884201D0F8
:10342000904203D1436C43F40043436420688842D4
:103430000DD090420BD0B0F1804F08D00B4988429C
:1034400005D00B49884202D00A49884204D18168DC
:1034500001F00701062903D0016841F00101016074
:10346000002010BD002C0140003401400004004049
:1034700000080040000C004030B504460D460068CE
:10348000002201F029FE194B41F2111120688A1027
:10349000984202D0164B984209D1036A0B4206D1DA
:1034A000036A134203D1436C23F40043436420684E
:1034B000036A0B4206D1016A114203D1016821F06F
:1034C0000101016001203DB1042D08D0082D09D073
:1034D00084F84100002030BD84F83E00FAE784F80B
:1034E0003F00F7E784F84000F4E70000002C0140BB
:1034F000003401402DE9F0411B491C4C88420ED19B
:103500002078022809D02078042802D020780528C5
:1035100001D107202070BDE8F0810320FAE71449AB
:103520000226884212D1134D134FA868401CA86090
:103530003878012802D101F0FBFB3E70A8680A2808
:10354000E9D1012020700020A860E4E70B498842FF
:10355000E1D10B480178012900D1067009480178B2
:103560000129D8D10670D6E7800900203401002057
:10357000C80900200000002098000020100A002048
:10358000510000206C0100207047704710B50446C0
:103590000068416994F84220C1F38011222A0ED1BB
:1035A00000290CD0416921F040014161E06B08B174
:1035B000FEF7B4F82046BDE8104000F001B810BD99
:1035C0000168CA6822F49072CA6001684A6922F0F0
:1035D00001024A61202180F84210704770470000C4
:1035E000F8B5016804460868CA684B6910F00F0F07
:1035F0004FF0000559D003F0010602F490773743ED
:1036000065D0C10705D0D10503D5616C41F001013A
:103610006164410705D5D90703D0616C41F002010F
:103620006164810705D5D90703D0616C41F00401BD
:103630006164010707D502F02001314303D0616CBA
:1036400041F008016164616C00293AD0800604D51C
:10365000900602D5204601F027FF20684069616C82
:10366000C0F38010090700D460B3204601F0E7FEE4
:1036700020684069400621D52068143050E8001FBA
:1036800021F0400140E80012002AF5D1E06BA8B11A
:103690006D494163E06BFEF765F8002811D0E06BDF
:1036A000416B01B0BDE8F040084783060FD5930693
:1036B0000DD52046BDE8F84001F0F6BE2046FFF7E4
:1036C0008DFFF8BD2046FFF789FF6564F8BD266BC6
:1036D0002023012E7CD1C6067AD5D60678D5086877
:1036E0004868009048694FF00206400640D5E16BFB
:1036F000086840680004000CE8D0A28D8242E5D939
:10370000E085886920282DD020680C3050E8001F03
:1037100021F4807140E80012002AF5D120681430AD
:1037200050E8001F21F0010140E80012002AF5D105
:103730002068143050E8001F21F0400140E80012DA
:10374000002AF5D184F84230256320680C3050E817
:10375000001F21F0100140E80012002AF5D1E06BB3
:10376000FDF7DCFF6663A08DE18D401A81B22AE08F
:10377000A08DE18D401A81B2E08D0028A6D00029ED
:10378000A4D022680C3252E8000F20F4907042E876
:103790000007002FF5D12068143050E8002F22F0E8
:1037A000010240E80027002FF5D184F8423025635C
:1037B00020680C3050E8002F22F0100240E800236F
:1037C000002BF5D166632046FFF7DFFEF8BDFFE76B
:1037D00005062BD5150629D594F841002128F5D1E9
:1037E000A068B0F5805F01D12069B0B1206A411CAA
:1037F0002162216800784860E08C401E0004000CC3
:10380000E084E3D12068C16821F08001C1602068B4
:10381000C16841F04001C160D8E7206A0088C0F368
:1038200008004860206A801C2062E5E74006CDD58C
:103830005006CBD5CA68204622F04002CA6084F800
:10384000413000F011FAC1E7F552000870B50400EC
:1038500004D094F84100002510B106E0012070BDAD
:1038600084F84050204600F023F8242084F84100DA
:103870002068C16821F40051C160204601F076FE45
:103880002068016921F4904101612068416921F0BB
:103890002A0141612068C16841F40051C16065643A
:1038A000202084F8410084F842006563002070BD48
:1038B0002DE9F04385B0002500950195029503950B
:1038C000044603685D48DFF870C102210322071532
:1038D00080264FF0100863454DD1836943F480433F
:1038E0008361836903F480430493836943F0040391
:1038F00083618069DFF8489100F0040004900802B9
:10390000CDE90001039269464846FEF781F9CDE909
:103910000075694648460295FEF77AF94A4F4948CC
:10392000C7E90005C7E902563D617D61BD613846C2
:10393000FD61FEF7D3F808B1FDF7A2FCE7637C62F6
:10394000414F404844371438C7E902563D617D6114
:10395000BD61FD61C7E900083846FEF7BFF808B150
:10396000FDF78EFCA76300220E2125207C62FEF766
:103970005DFC25205AE0DFF8D4C0634558D1C36907
:1039800043F48023C361C36903F4802304938369F0
:1039900043F0100383618069CDE9007100F01000ED
:1039A000CDE903202A4F69463846FEF731F9F8146D
:1039B000CDE90005694638460295FEF729F9254804
:1039C000416821F0300141F0E06141F010014160B7
:1039D0001D4F1C4888372838C7E90005C7E902563B
:1039E0003D617D61BD613846FD61FEF777F808B144
:1039F000FDF746FCE7637C62134F1248CC373C3836
:103A0000C7E902563D617D61BD61FD61C7E90008FE
:103A10003846FEF763F808B1FDF732FCA7630022D1
:103A20000E2127207C62FEF701FC2720FEF7F1FB28
:103A300005B0BDE8F08300000038014000100240EE
:103A40000008014058000240300B002000480040B0
:103A5000001001400000014090F84230202B01D0BE
:103A60000220704721B11AB10023036301F0DABDCF
:103A70000120704790F84230202B01D0022070477F
:103A800021B11AB10023036301F014BE0120704775
:103A900010B500682849884201D1012008E0274973
:103AA000884201D1022003E02549884242D1032007
:103AB000411E01EBC102234951F82230834239D122
:103AC00001EB82004022416801EBC10303EB81134B
:103AD0001D4901EBC304D4F8141104EB8101C1F8B2
:103AE0000021D4F83C124031C4F83C12D4F814112F
:103AF000032912D0D4F8141111F10101C4F81411E2
:103B0000C1680029D4F81411806804EB81114FF0CA
:103B1000400204D0FFF7A0FF03E00021EEE7FFF72B
:103B2000A9FFD4F81401D4F81011884202D1012061
:103B3000C4F8180110BD00000038014000440040E6
:103B400000480040C86F00080802002070472DE9B7
:103B5000F843044690F84100984616460D46202842
:103B600002D00220BDE8F88385B17EB100206064F8
:103B7000212084F84100FEF751F9A6848146E684AD
:103B8000A0682027B0F5805F02D003E00120E9E7BC
:103B9000206910B12E4600250EE000260CE08021A1
:103BA000204601F0A2FDA8B9C6B116F8010B2168A4
:103BB0004860E08C401EE084E08C4B464FF00002F1
:103BC000CDF800800028EAD14FF04001204601F0F6
:103BD0008CFD40B184F841700320C3E735F8020B37
:103BE000C0F30800E3E784F841700020BAE7000062
:103BF00070B5044690F84100202801D0022070BD25
:103C000049B342B32162A284E2840020606421238C
:103C100084F84130A56B114BAB62A56B104BEB6286
:103C2000A56B104B2B63A36B5863256813462A1DA5
:103C3000A06BFDF791FF21686FF0400008602068DD
:103C4000143050E8001F41F0800140E80012002AC3
:103C5000F5D1002070BD012070BD0000F3530008B5
:103C6000355400080553000800681949884201D1FD
:103C7000012008E01749884201D1022003E01649DB
:103C8000884221D10320411E144A01EBC10152F8A0
:103C90002130834218D102EB8100406800EBC00163
:103CA00001EB80110E4800EBC100D0F82C2200215E
:103CB000032A0AD0D0F82C22521CC0F82C2200BFB4
:103CC000C0F83412C0F838127047C0F82C12F7E769
:103CD000003801400044004000480040C86F000820
:103CE000080200207047FEE701684A69D243520586
:103CF0000FD46FF480624A61002140F8301F202207
:103D000042738173026942F004020261017301206F
:103D100070470020704700002DE9F8430446006812
:103D20000D46DDE9089701689846164641F4807112
:103D300001604B4600224FF001112046009700F031
:103D40006BF848B120680068C00502D54FF40070D8
:103D500020640320BDE8F883216805F0FE000861B7
:103D60003B464A461549204600F09EF888B920682F
:103D70004169806900903A464946204600F0F2F8D1
:103D800048B1206C042804D12068016841F4007116
:103D900001600120DEE7F5B2B8F1010F09D021681A
:103DA000300A08613A464946204600F0DBF8002810
:103DB000E7D1206805610020CCE700000200010087
:103DC00070B516460D4604461EE02046FFF78CFFF0
:103DD00008B1012070BD681C16D0FEF71FF8801BCB
:103DE000A84200D885B920684069C04340070BD578
:103DF000002044F8300F20216173A073216941F045
:103E0000200121612073E4E720684069C043400736
:103E1000DBD4002070BD00002DE9F047984617461E
:103E20000D460446C1F30746DDF820902AE000BFA6
:103E3000B8F1FF3F26D0FDF7F1FFA0EB09014145A6
:103E400002D8B8F1000F1DD12068012E16D080696C
:103E500025EA00000004000C12D00020B84211D165
:103E6000002044F8300F20216173A073216941F0D4
:103E70002001216120730120BDE8F0874069E7E758
:103E80000120EBE72068012E0AD0806925EA0000B6
:103E90000004000C06D00020B842C9D00020EBE797
:103EA0004069F3E70120F7E72DE9F0479846164609
:103EB0000D4604464FF000094FF0200AC1F30747B2
:103EC00023E020684069C043400515D4206801689C
:103ED00041F40071016021686FF480604861C4F8AA
:103EE000309084F83DA084F83E90216C41F00401AC
:103EF000216484F83C9021E0701C06D0FDF78EFF11
:103F0000A0EB0800B04203D816B1012F1FD021E06A
:103F10002068012F15D0806925EA00000004000CFC
:103F200018D000BF44F8309F84F80DA084F80E909C
:103F3000216941F02001216184F80C900120BDE845
:103F4000F087406925EA00000004000CEAD12068EF
:103F5000406901E02068806925EA00000004000C47
:103F6000AFD1ECE770B516460D4604461EE020467C
:103F7000FFF7BAFE08B1012070BD681C16D0FDF72E
:103F80004DFF801BA84200D885B920684069C04316
:103F900000060BD5002044F8300F20216173A07378
:103FA000216941F0200121612073E4E72068406924
:103FB000C0430006DBD4002070BD00002DE9FF41A6
:103FC0002B4A0027525C8DF80220C0B18DF800709A
:103FD0008DF80170274C002240212046FDF719FF83
:103FE000234814231038032269468068FEF7E4FC56
:103FF000012240212046FDF70CFFBDE8FF81880625
:10400000050E1B4E0020B61D01AA291800EB400426
:10401000735C002104EB010E03F0070C491CDB0864
:10402000C9B202F80EC00329F4D3401CC0B2042860
:10403000EBD3DFF83CC000200CF11E0C6B4600EB0C
:1040400040041F5400210CEB44041D5C6D081D54FA
:10405000665C965D16B145F080051D54491CC9B2D9
:104060000629F2D3401CC0B20228E8D3B2E7000010
:104070007C010020000801400020044902460A5447
:10408000401CC0B21828FAD37047000082010020FB
:104090002DE9F047302831D2DFF86480194F002233
:1040A00008F1900908F5907A02EB420108EB011340
:1040B0001E5C09EB01130AEB01111D5C0C5C002373
:1040C00000215FEAC67C00D001215FEAC57C01D0F7
:1040D00041F009015FEAC47C01D041F0800103EBAB
:1040E000C20C5B1C76086D086408DBB207F80C1084
:1040F000082BE5D3521CD2B2032AD5D3BDE8F087F2
:104100006C730008820100203EB500211148009127
:1041100001910F4A029102608160017301750124CF
:104120004FF460220461C2614160FDF717FA08B1E3
:10413000FDF7A6F80A20CDE90004022002906946A6
:104140000448FDF71DF9002801D0FDF799F83EBDA0
:1041500000240140E8060020194808B5416941F0F3
:10416000010141614069002200F001000090114608
:104170000B20FEF75BF80B20FEF74BF800221146F0
:104180000C20FEF753F80C20FEF743F800221146EE
:104190000D20FEF74BF80D20FEF73BF800221146EC
:1041A0000E20FEF743F80E20FEF733F800221146EA
:1041B0000F20FEF73BF8BDE808400F20FEF729B8B6
:1041C000001002402DE9F04F85B0002460480094B3
:1041D000019402940394816941F010018161816925
:1041E00001F010010491816941F020018161816930
:1041F00001F020010491816941F00401816181692C
:1042000001F004010491816941F008018161806934
:10421000DFF8409100F008000490002242F21601FD
:104220004846FDF7F6FDDFF830B10022512158462F
:10423000FDF7EFFD4FF4805A002251464748FDF745
:10424000E8FD002204214648FDF7E3FD42F20400A8
:1042500001250226CDE90005CDE90246694648461A
:10426000FDF7D6FC12204FF00308CDE90005CDE99B
:10427000024869464846FDF7CBFC3A4F0820CDE995
:104280000007694602944846FDF7C2FC5120CDE97B
:104290000005CDE9024669465846FDF7B9FC00968F
:1042A000CDE9017469465846FDF7B2FC4FF48150E0
:1042B00000902D48CDE9010469464846FDF7A8FC69
:1042C0004FF00409CDF80090CDE901746946234808
:1042D000FDF79EFCCDF800A0CDF80C80CDE901548F
:1042E00069461E48FDF794FCCDF800900396CDE991
:1042F000015469461A48FDF78BFC0022082107206B
:10430000FDF794FF0720FDF784FF082100220846EF
:10431000FDF78CFF0820FDF77CFF00220821092013
:10432000FDF784FF0920FDF774FF00220621172006
:10433000FDF77CFF1720FDF76CFF002206212820E7
:10434000FDF774FF2820FDF764FF05B0BDE8F08F8E
:10435000001002400010014000080140000C014024
:104360000014014000001110000031100D4810B57C
:104370000B4901600C49416000214FF4804281608B
:10438000C0E9031241618161C1610162FDF74CFD29
:10439000002803D0BDE81040FCF772BF10BD00003C
:1043A000005800405C070020A0860100104810B5AE
:1043B0000E4901604FF48271416000218160C1604B
:1043C0004FF400720161C0E905120822C0E907211B
:1043D000416281620A21C162FEF73CFA002803D0E3
:1043E000BDE81040FCF74CBF10BD0000003001409C
:1043F000B00700200F4810B50D4901604FF48271DD
:10440000416000218160C1604FF400720161C0E928
:104410000512C1610162416281620A21C162FEF737
:1044200019FA002803D0BDE81040FCF729BF10BDE1
:10443000003800400808002010B592B000240F9406
:104440001C2108A81094FBF7A8FE20216846FBF762
:10445000A4FE20481E49C0E900144FF6FF71C0E9D0
:104460000241046144618461FEF769FF08B1FCF711
:1044700007FF0F940FA917481094FEF791FB08B19E
:10448000FCF7FEFE6020CDE908040A940B940C941E
:104490000D94002208A90F480E94FEF7EAFE08B119
:1044A000FCF7EEFE00944FF40050CDE90440029476
:1044B00001940394694607480794FEF746FB08B148
:1044C000FCF7DEFE0348FEF777FE12B010BD0000D9
:1044D000002C01406008002010B58EB00024079425
:1044E000089409940A940B941C2168460C94FBF7D9
:1044F00054FE25484FF08041C0E900144FF6FF718B
:10450000C0E9024104618461FEF788FB08B1FCF751
:10451000B7FE4FF48050079007A91B48FEF758FCE0
:1045200008B1FCF7ADFE1848FEF709FF08B1FCF72B
:10453000A7FE0B940BA914480C94FEF731FB08B1AD
:10454000FCF79EFE6020CDE900040294002269463B
:104550000D480494FEF78DFE08B1FCF791FE082289
:1045600069460948FEF785FE08B1FCF789FE0C2272
:1045700069460548FEF77DFE08B1FCF781FE02485A
:10458000FEF71AFE0EB010BDA808002010B58CB0C2
:1045900024216846FBF701FE0024164809941449BB
:1045A0000A94C0E900144FF6FF71C0E902410461AA
:1045B00084610320CDE900040120CDE902040494C4
:1045C000CDE90540079469460A480894FEF76EFC59
:1045D00008B1FCF755FE099409A906480A94FEF7AC
:1045E000DFFA002801D0FCF74BFE0CB010BD000034
:1045F00000040040F008002010B58EB0002407949D
:10460000089409940A940B941C2168460C94FBF7B7
:10461000C4FD22482049C0E900144FF6FF71C0E9EB
:10462000024104618461FEF7F9FA08B1FCF728FE43
:104630004FF48050079007A91848FEF7C9FB08B14E
:10464000FCF71EFE1548FEF77AFE08B1FCF718FECF
:104650000B940BA911480C94FEF7A2FA08B1FCF7D1
:104660000FFE6020CDE900040294082269460B4841
:104670000494FEF7FEFD08B1FCF702FE0C22694629
:104680000648FEF7F6FD08B1FCF7FAFD0348FEF711
:1046900093FD0EB010BD0000000800403809002056
:1046A00010B586B000241648009401940294039437
:1046B000049412490594C0E900144FF6FF71C0E953
:1046C000024104618461FEF7A9FA08B1FCF7D8FD44
:1046D0004FF48050009069460948FEF779FB08B115
:1046E000FCF7CEFD049404A905480594FEF758FA9A
:1046F000002801D0FCF7C4FD06B010BD000C00403E
:10470000800900201CB500240E4800940C49019437
:10471000016048F69F41C0E90114C7218461C1606E
:10472000FEF77CFA08B1FCF7ABFD0094694605483A
:104730000194FEF735FA002801D0FCF7A1FD1CBD5D
:1047400000100040C80900201CB500240E48009449
:104750000C490194C0E900144FF6FF71C0E9024111
:104760008461FEF75BFA08B1FCF78AFD00946946A4
:1047700005480194FEF714FA002801D0FCF780FDEB
:104780001CBD000000140040100A002010B58CB0C1
:1047900024216846FBF701FD0024164809941449BA
:1047A0000A94C0E900144FF6FF71C0E902410461A8
:1047B000446184610320CDE900040120CDE90204B5
:1047C0000494CDE90540079469460A480894FEF729
:1047D0006DFB08B1FCF754FD099409A905480A943A
:1047E000FEF7DEF9002801D0FCF74AFD0CB010BD41
:1047F00000340140580A00200C4810B50A490160F5
:104800004FF4E1314160002181600C22C160C0E9B8
:1048100004128161C161FFF719F8002803D0BDE8D7
:104820001040FCF72DBD10BD00380140A00A00204B
:104830000C4810B50A4901604FF4E1314160002194
:1048400081600C22C160C0E904128161C161FEF780
:10485000FDFF002803D0BDE81040FCF711BD10BDDE
:1048600000480040E80A0020FEE700002DE9F04182
:1048700000241D4E2746E0B2FCF7F6FB06EB0415BC
:10488000686800684762D5E90101FEF7F5FDE9684F
:104890006868FEF7F1FD641C022CECD3124E002474
:1048A00040F2EE252036E0B200F0A2FA06EB04104A
:1048B000816879B1042911D008294168096811D0AB
:1048C0000D6481684068FEF77DFD641C022CEAD30C
:1048D000BDE8F081416809684D63F2E74168096805
:1048E0008D63EEE7CD63ECE7100000202DE9F04189
:1048F000324C6178204600258068E9B3617802294E
:104900004FD12F49E288895C42F28A02B2FBF1F171
:10491000A1800021FEF7B0FDA06805210268916228
:10492000274EE188C83EA6F15802735C076852F82A
:1049300023305B1EFB62735C52F823305B1EC36046
:1049400003685D62715C52F8211002684908516386
:104950000021FEF737FDE068FEF722FAE06841F635
:104960001F41026891620268A188D162C16001683A
:104970004D62FEF7DFF900E007E0E088401C80B2FE
:10498000E080305CFF2806D008E0A178002908D03C
:10499000A57000210BE0E580207820B10120607037
:1049A000A070BDE8F0816570A5700021A068FEF7D9
:1049B00063FDE068BDE8F041FEF7F2B95000002069
:1049C000B8680008024800214170C068FEF7E8B9E5
:1049D00050000020024801214170C068FEF7AAB9CA
:1049E00050000020FEE700002DE9FF5F9B4689464E
:1049F00006464FF0000801283BD8B9F11F0F38D800
:104A0000002434E00298005DA8B3B8F1010F33D060
:104A10002038C0B25E2800D90020194901EB0017E8
:104A200009EB04004FEAC00A70060AF0FF01000E0D
:104A300000F028F800250E99785D00F05BF86D1CF9
:104A4000EDB2082DF7D3012000EB46000AF0FF017C
:104A5000C0B200F017F8002578190E99007A00F01E
:104A600049F86D1CEDB2082DF6D3641CE4B25C4528
:104A7000C8D3BDE8FF9FFFE700204FF00108CCE757
:104A80008069000810B5B0300C46C0B200F020F8C4
:104A9000102000EB141000F01BF804F00F00BDE82C
:104AA000104000F015B870B5002400212046FFF733
:104AB000E9FF00250021084600F01CF86D1CEDB24E
:104AC000802DF7D3641CE4B2042CEED370BD00003B
:104AD00001B584B00121642204A88DE807000448D0
:104AE0000B46002278218068FDF762FA05B000BD10
:104AF0006000002013B50B4884B064228068012355
:104B000004AC21B19DF81010C9438DF81010009429
:104B1000CDE90132012340227821FDF749FA06B0A0
:104B200010BD00006000002010B5AE20FFF7D0FFE0
:104B3000D520FFF7CDFF8020FFF7CAFFA820FFF7A1
:104B4000C7FF1F20FFF7C4FFD320FFF7C1FF0020DE
:104B5000FFF7BEFF4020FFF7BBFF8D20FFF7B8FF38
:104B60001420FFF7B5FF2020FFF7B2FF0220FFF768
:104B7000AFFFC820FFF7ACFFA120FFF7A9FFDA20A5
:104B8000FFF7A6FF0220FFF7A3FF8120FFF7A0FF9A
:104B9000CF20FFF79DFFD920FFF79AFFF120FFF705
:104BA00097FFDB20FFF794FF4020FFF791FFBDE860
:104BB0001040AF20FFF78CBF7047F8B515460E4682
:104BC0000B46009204460122022100F011F840B980
:104BD0003346002280212046009500F009F8002885
:104BE00004D0606D40F0200060650320F8BD000037
:104BF0002DE9F8431E46914688460446089DFDF778
:104C00000DF9401B351AFDF709F9074625480068DC
:104C1000C0F3CB30684338E0701C37D0FDF7FEF8A6
:104C2000C01BA84203D215B1009860B32CE02068E5
:104C3000416821F0E00141606068B0F5827F0BD1EE
:104C4000A068B0F5004F02D0B0F5806F04D12068A5
:104C5000016821F040010160A06AB0F5005F09D150
:104C60002068016821F4005101602068016841F466
:104C700000510160012084F85100002084F85000A8
:104C80000320BDE8F8830025401E0090206881685D
:104C900038EA010004D000214945BDD10020F0E7E9
:104CA0000121F9E7E40100207047000038B5002435
:104CB0001023074A214620460094FFF795FE044A38
:104CC00010231032002101200094FFF78DFE38BD23
:104CD000EC0100200948B0F9042009494A4342F296
:104CE000107192FBF1F28260B0F91020044B5B422C
:104CF0005A4392FBF1F141617047000080000020AF
:104D0000943F010070B50024084D264604EB440092
:104D100055F8201009684E6255F820003C21FEF736
:104D20006BF9641C022CF1DB70BD000080000020D8
:104D300030B500200B49034600EB400251F82240F9
:104D40002468646A01EB8205AC8051F82220126865
:104D50005362401C0228EFDB02490120143908701D
:104D600030BD00008000002010B50124204600F076
:104D700005F8641C082CF9D910BD000048B10828BA
:104D800007D8411E054A01EBC10152F821108142AA
:104D900001D00020704700F033BD0000C86F00084C
:104DA000022817DA5A31B52914D24FF4FA72514356
:104DB000B42291FBF2F10D4A01F5FA7102EB0010F9
:104DC00089B282683AB1042A09D04068082A00688A
:104DD00009D00164704740680068416370474068CB
:104DE000006881637047C163704700003000002095
:104DF000F0B58DB004461C2105A8FBF7CEF90021C3
:104E00000091019102910391022C65D23D4800EB83
:104E10000410D0E900273A606022CDE9052107910E
:104E20000991826805A93846FEF723FA08B1FCF714
:104E300027FA3868344C0225344EB0F1804F17D130
:104E4000A06940F00400A061A069694600F0040078
:104E50000C90A803CDE900052D480395FCF7D8FE7A
:104E6000706820F4407040F0E06040F48070706042
:104E7000284A39682848914216D1A16941F00801B1
:104E8000A161A169039501F0080104911021CDE908
:104E900000156946FCF7BCFE706820F4406040F0E5
:104EA000E06040F4006016E01C4B4022994215D1AE
:104EB000A16941F00801A161A169CDE9002501F0D6
:104EC0000801CDE903516946FCF7A2FE706820F4A1
:104ED000805040F0E06070600DB0F0BD104881423D
:104EE000FAD1A06940F01000A061A069CDE90025C9
:104EF00000F01000CDE9035069460A48FCF788FE2F
:104F0000EAE70000300000200010024000000140ED
:104F10000008014000040040000C0140000800406F
:104F20000034014000100140FDF70AB930B595B0DA
:104F300028216846FBF731F914210AA8FBF72DF95F
:104F400018210FA8FBF729F901210804CDE9001069
:104F50000025029502240491CDE907404FF4E010AA
:104F600009906846FDF7E6FA08B172B6FEE70AA9AD
:104F70000F2081E831004FF48060CDE90D0502215A
:104F80000AA8FDF7FBF908B172B6FEE74FF400403E
:104F900011900F940FA8FDF77BF9002801D072B68D
:104FA000FEE715B030BD704710B5FFF7DDFE00F02D
:104FB000F9FEFCF767F9FFF759FCFFF7A3FE00F0D5
:104FC00057FDFBF7F7FEFBF72DFD00F00DF8BDE8F0
:104FD000104001A000F01CBF4D435520496E69747C
:104FE000204F4B210A00000010B50A4C6068FDF705
:104FF000D7FE606848F69F410268916202681321FB
:10500000D162C160026800215162BDE81040FDF725
:1050100091BE0000000000200148FEF735B80000F6
:10502000800900200148FEF72FB80000C8090020C1
:105030000148FEF729B80000100A0020F0B5026808
:10504000204C214D214E224F224B4FF0804CA0424C
:1050500009D0984207D0604505D0A84203D0B0429D
:1050600001D0B84204D122F0700E4A6842EA0E0222
:10507000A04209D0984207D0604505D0A84203D08D
:10508000B04201D0B84203D122F44075CA682A4325
:105090004D6922F080022A4302608A68C2620A686F
:1050A0008262A04201D0984201D1096901630121C5
:1050B00041610169C90703D0016921F00101016162
:1050C000F0BD0000002C014000040040000800403A
:1050D000000C00400034014010B501F01F03012115
:1050E000046A99408C430462016A9A401143016248
:1050F00010BD10B5846842EA032224F47F440A43B9
:105100002243826010BD826822F070020A4342F09E
:105110000701816070470000F0B5036A026A22F05F
:105120000102026242688469124E24F073050C6821
:105130002C4323F002058B682B430D4DA84201D070
:10514000B04205D123F00807CB683B4323F00403AA
:10515000A84201D0B04205D14D6922F440721543F6
:105160008A692A4342608461496841630362F0BDF1
:10517000002C014000340140F0B5026A036A23F0BC
:1051800010030362436884690D6824F4E64444EA2A
:1051900005248D6822F0200242EA05120F4D104EC0
:1051A000A84201D0B04206D1CF6822F0800242EA84
:1051B000071222F04002A84201D0B04207D14D6947
:1051C00023F4406343EA85038D6943EA8503436022
:1051D0008461496881630262F0BD0000002C0140D7
:1051E00000340140F0B5026A036A23F4807303625D
:1051F0004368C46922F4007224F073050C68124EEF
:105200002C438D6842EA05220E4DA84201D0B042DF
:1052100006D1CF6822F4006242EA072222F48062BB
:10522000A84201D0B04207D14D6923F4405343EA6C
:1052300005138D6943EA05134360C4614968C1637E
:105240000262F0BD002C01400034014030B5046A18
:10525000026A22F4805202624268C3690D6823F434
:10526000E64343EA05238D6824F4005444EA0534F8
:10527000084DA84202D0084DA84204D14D6922F43D
:10528000804242EA85124260C36149680164046257
:1052900030BD0000002C01400034014010B5036A0D
:1052A000046A24F001040462846924F0F00444EAEE
:1052B000021423F00A020A438461026210BD10B591
:1052C000036A046A24F010040462846923F0A003D2
:1052D00024F4704444EA023243EA0111826101621B
:1052E00010BD194603460020042B02D1104600F0E1
:1052F00055BA704710B5406A0021C185C184FEF7D8
:105300006DF910BD70B5446A2068406994F8411089
:10531000C0F3C0100025212904D118B1E58420462E
:1053200000F0B4F82068406994F84210C0F380108F
:10533000222904D118B1E585204600F080F8606C80
:1053400040F0100060642046FEF748F970BD10B5CB
:105350000146406A096809684FF0000289062ED4A8
:10536000C28501680C3151E8003F23F4807341E8A5
:105370000034002CF5D10168143151E8003F23F0CE
:10538000010341E80034002CF5D10168143151E8E3
:10539000003F23F0400341E80034002CF5D12021E8
:1053A00080F84210016B012909D101680C3151E8E4
:1053B000003F23F0100341E80034002CF5D1426394
:1053C000016B012902D0FEF763FB10BD818DFEF752
:1053D000DCF810BD10B5406A01214163016B012961
:1053E00002D0FEF7B3FB10BD818D4908FEF7CDF862
:1053F00010BD10B50146406A09680968890616D4CF
:105400000021C1840168143151E8002F22F080028C
:1054100041E80023002BF5D101680C3151E8002F41
:1054200042F0400241E80023002BF5D110BDFEF709
:105430001BFC10BD10B5406AFEF754FC10BD01689E
:105440000C3151E8002F22F4907241E80023002B28
:10545000F5D10168143151E8002F22F0010241E832
:105460000023002BF5D1016B012909D101680C3112
:1054700051E8002F22F0100241E80023002BF5D163
:10548000202180F8421000210163704701680C312F
:1054900051E8002F22F0C00241E80023002BF5D193
:1054A000202180F84110704708B590F84210222959
:1054B00001D0022008BD82684FF480539A4201D186
:1054C000016921B1816A9A421BD04AB10AE002689F
:1054D000816A5268C2F308020A80816A891C08E066
:1054E000026972B10268526802F07F020A70816A32
:1054F000491C8162C18D491E0904090CC18503D074
:105500001BE002685268F1E70168CA6822F02002D5
:10551000CA600168CA6822F48072CA6001684A6978
:1055200022F001024A61202180F8421000214163EB
:10553000026B012A03D0FEF7ABFA002008BD01631D
:1055400001680C3151E8002F22F0100241E80023DD
:10555000002BF5D101680A68D20602D50A684968AD
:105560000091818DFEF711F8E7E7000070B5044661
:1055700000680169E26821F4405111430161216929
:10558000A0680843616908432168CA6841F20C6356
:105590009A430243CA6020684169A26921F44071BC
:1055A000114341611E492068884202D1FCF78CFFFB
:1055B00001E0FCF779FF00EBC00101EB001260682D
:1055C00064218000B2FBF0F3B3FBF1F36FF0180637
:1055D0007343B2FBF0F5B2FBF0F605EB8305322323
:1055E00003EB0515B5FBF1F5B6FBF1F605F0F0059B
:1055F00005EB0615B2FBF0F6B2FBF0F0B0FBF1F0F4
:105600006FF01802504306EB800003EB0010B0FB74
:10561000F1F0216800F00F002844886070BD0000A0
:105620000038014038B58162044682850020134667
:105630006064222284F84220E56B1B4AAA62E56B73
:105640001A4AEA62E56B1A4A2A63E26B50630A4619
:105650002168E06B091DFCF77FFA2068016840684B
:105660000090206948B120680C3050E8001F41F4D8
:10567000807140E80012002AF5D12068143050E80B
:10568000001F41F0010140E80012002AF5D1206816
:10569000143050E8001F41F0400140E80012002A99
:1056A000F5D1002038BD00004F530008D553000845
:1056B0000553000881628285C28500214164222150
:1056C00080F84210016921B10168CA6842F4807211
:1056D000CA6001684A6942F001024A610068C16813
:1056E00041F02001C160002070472DE9F843984641
:1056F00017460D460446089E24E0701C22D0FCF795
:105700008DFBA0EB0800B0421AD8CEB12068C1686A
:10571000490717D5802D15D0402D13D00168C943F6
:1057200009070FD401680025406800902046FFF764
:1057300086FE0820606484F840500120BDE8F883AC
:105740000320FBE72068006835EA000004D0002051
:10575000B842D2D00020F1E70120F9E710B50120CE
:1057600000F096F8BDE810400148FDF739BF000091
:10577000A00A002010B5032000F08AF8BDE8104010
:105780000148FDF72DBF0000E80A0020FFF7A9BD82
:1057900000207047FFF7A5BD002070472DE9F041BC
:1057A00000231C46144A154E012720E010F803C0C0
:1057B000BCF1400F06D01578BCF1260F05D0012DA5
:1057C0000DD013E01770547010E0012D0ED15578F4
:1057D00065B1E9B20948745400F061FA09E05578FE
:1057E0003F2D03D206F805C06D1C55705B1C8B4223
:1057F000DCD30120BDE8F081A8010020A60600202E
:1058000070B5C8B3082838D8401E082835D200EB38
:10581000C0011D4850F8212072B300EB8104D4E987
:105820000150FEF713F805EBC50101EB851217498E
:10583000002001EBC201C1F81001C1F81401C1F848
:105840001801C1F82C02C1F83002C1F83402C1F8C5
:105850003802C1F83C02C1E99004A0680068C2683F
:1058600042F01002C260E0684FF040020028A068D9
:1058700005D0FEF7F1F804E0FFE7002070BDFEF769
:10588000F9F8012070BD0000C86F00080802002070
:105890002DE9F843411E01EBC102484951F822307D
:1058A00083427DD101EB8206D6E9017001680A6866
:1058B000D243D2067ED40A684FF000084A680092AC
:1058C0000A68496800913E4CF16891B3FDF75EFEAD
:1058D000F06800684068C0F14005002D1ADD07EB54
:1058E000C70000EB871004EBC000D0F8141100EBE8
:1058F0008101C1F80051D0F83C122944C0F83C1293
:10590000D0F81411032915D0D0F8141111F10101A8
:10591000C0F8141107EBC70000EB871004EBC000C0
:10592000D0F81411402200EB8111B068FEF794F812
:105930002DE001E04146EBE7FDF742FEB068C18D86
:10594000C1F14005002D15DD07EBC70101EB871103
:1059500004EBC101D1F8142101EB8202C2F800511D
:10596000D1F81421032A27D0D1F8142112F1010211
:10597000C1F8142107EBC70101EB871104EBC1014A
:10598000D1F8142101EB82114022FEF773F8002DAB
:1059900010DD07EBC70000EB871004EBC00000E050
:1059A00008E0D0F81411D0F81021914202D1012161
:1059B000C0F81811BDE8F8834246D9E7C86F00085F
:1059C0000802002070B5294C217804F1080504294B
:1059D00028D02178052924D1617801EB410105EB1C
:1059E000C101898981421CD1607800EB400005EB40
:1059F000C0008189607800EB400005EBC000806842
:105A0000FCF702FA00280CD160680168496A6278E4
:105A100002EB420205EBC2021182FDF7C1F906203A
:105A2000207070BD617801EB410105EBC1018989EE
:105A30008142F6D1607800EB400005EBC00081891F
:105A4000607800EB400005EBC0008068FCF7DCF9F3
:105A50000128E6D16068FDF7A3F9606800210268BB
:105A60005162FDF767F90520DAE7000034010020F4
:105A70002DE9F0410F4F00263E707E70344607F14D
:105A8000080800BF04EB440208EBC2052E826E61D9
:105A900058F83200A9880022FCF7BBF995F90E00EE
:105AA000FCF7A6FB641C022CECDB7868BDE8F04137
:105AB000FDF776B93401002003480178002901D1AF
:105AC0000121017070470000340100201D48017859
:105AD000002935D0017801290FD00178032910D091
